:1000000024C03EC03DC03CC03BC03AC08AC038C0DE
:1000100037C036C035C034C033C032C031C030C044
:100020002FC04DC04EC04FC050C051C052C055C06F
:1000300058C059C05AC05BC05CC05DC05EC05FC0E4
:1000400060C061C062C065C068C011241FBECFE53A
:10005000D2E0DEBFCDBF12E0A0E6B0E0EEEBF2E012
:1000600002C005900D92AE36B107D9F722E0AEE698
:10007000B2E001C01D92A337B207E1F799D01DC1CC
:10008000BFCF1ABA87B38C7F87BBF8941FBC1EBC46
:100090008EB589608EBD8FEF93E09BBD8ABD619A5E
:1000A0007894379880B1836080B9089590E0843166
:1000B0009105B0F5FC01EF5EFF4F8AB309948360B0
:1000C00009C083600BC0856021C0896023C081683E
:1000D00025C085608ABBD89A089586608ABBD99A64
:1000E0000895866013C08A6015C0826817C0896051
:1000F000F1CF8A60F3CF8C6009C08C600BC084683C
:100100000DC08168E7CF8268E9CF84688ABBDA9A3C
:10011000089588688ABBDB9A089588688ABBDF9A4D
:1001200008951F920F920FB60F9211242F933F93B1
:100130004F935F936F937F938F939F93AF93BF93EF
:10014000EF93FF931ABA1BBA8091720245E0642FB5
:10015000A8D0E82FF0E0E259FD4F20818091720293
:1001600030E09FD002C0359527959A95E2F720FFA1
:1001700003C0809172029ADF809172028F5F809338
:10018000720280917202843110F010927202FF911B
:10019000EF91BF91AF919F918F917F916F915F91FF
:1001A0004F913F912F910F900FBE0F901F90189578
:1001B000CF93DF93CDB7DEB766970FB6F894DEBF67
:1001C0000FBECDBF8EE0E0E6F2E08E010F5F1F4F65
:1001D000D80101900D928A95E1F753DF4E0123E19A
:1001E000820E911CD80180E090E0F801019000207F
:1001F000E9F73197E01BF10B8E179F0798F7ED9108
:100200000E2E000CFF0BEE0FFF1FEE0FFF1FE05A2C
:10021000FF4F40814F874181488B4281498B438109
:100220004A8B0196F80101900020E9F73197E01B15
:10023000F10B8E179F07B0F0E9810E2E000CFF0B1B
:10024000EE0FFF1FEE0FFF1FE05AFF4F40814B8B59
:1002500041814C8B42814D8B43814E8BBE01615F4E
:100260007F4F1BC0EC91E9CFF501D1905F019A015E
:1002700022593D4FF901D0824F5F5F4F4430510505
:1002800099F7EFE4F3EC3197F1F700C000006F5FEE
:100290007F4F8616970609F4A8CF5B0140E050E037
:1002A000E3CF991B79E004C0991F961708F0961BBD
:0E02B000881F7A95C9F780950895F894FFCFBE
:1002BE000000000000000000000000000000000030
:1002CE000000000000000000000000000000000020
:1002DE000000000000000000000000000000000010
:1002EE000000000000000000000000000000000000
:1002FE0000000000000000000000000000000000F0
:10030E0000000000000000000000000000000000DF
:10031E0000000000000000000000000000000000CF
:10032E0000000000000000000000000000000000BF
:10033E0000000000001D0000180018000000000062
:10034E00091F12001304190000000000001800001D
:10035E00000E1100110E0000040A0400040E040029
:10036E000102000004040400000100000304180050
:10037E001F111F00091F01001315090011150A0096
:10038E001C041F00191512000E151200131418006C
:10039E000A150A0009150E00000A0000010A0000E5
:1003AE00040A11000A0A0A00110A040010150800B6
:1003BE00000000000F140F001F150A000E1111008F
:1003CE001F110E001F1511001F1410000E11160024
:1003DE001F041F00111F110002011E001F041B002D
:1003EE001F0101001F081F001F100F000E110E002D
:1003FE001F1408000C120D001F140B00091512001B
:10040E00101F10001F011F001E011E001F021F00E3
:10041E001B041B001807180013151900000000001C
:10042E00180403000000000000000000000000009F
:10043E0000000000000000000000000000000000AE
:10044E00000000000000000000000000000000009E
:10045E00000000000000000000000000000000008E
:10046E00000000000000000000000000000000007E
:10047E00000000000000000000000000000000006E
:10048E00000000000000000000000000000000005E
:10049E00000000000000000000000000000000004E
:1004AE00000000000000000000000000000000003E
:0E04BE0048454C4C4F20574F524C44212000D3
:00000001FF
