:1000000024C03EC03DC03CC03BC03AC006C138C061
:1000100037C036C035C034C033C032C031C030C044
:100020002FC044C145C146C147C148C149C14CC1A7
:100030004FC150C151C152C153C154C155C156C124
:1000400057C158C159C15CC15FC111241FBECFE562
:10005000D2E0DEBFCDBF11E0A0E6B0E0E6E9F5E01A
:1000600002C005900D92A039B107D9F721E0A0E9AF
:10007000B1E001C01D92A539B207E1F776D189C27E
:10008000BFCF1ABA87B38C7F87BBF8941FBC1EBC46
:100090008EB589608EBD8FEF93E09BBD8ABD619A5E
:1000A0007894379880B1836080B908956F927F9279
:1000B0008F929F92AF92BF92CF92DF92EF92FF9278
:1000C0000F931F93CF93DF93CDB7DEB728970FB66B
:1000D000F894DEBF0FBECDBF8C01712CE72CF12C44
:1000E000F80101900020E9F73197E01BF10BEE16C3
:1000F000FF0608F05BC0CE0101965C014C01612C4B
:100100006801CE0CDF1C662DF601808117D1F40149
:1001100081934F016394F4E06F12F5CFF8010190E1
:100120000020E9F73197E01BF10B8FEFE81AF80A8E
:10013000EE16FF0688F0FE0135966F01F12C6F2D4B
:10014000F8018081FBD0F60181936F01F394F4E014
:10015000FF12F5CF84E013C0CE0105964C01F12CBF
:100160009FEFC91AD90A6F2DF6018081E7D0F401FB
:1001700081934F01F394F4E0FF12F5CFEBCFE0E968
:10018000F1E0D5019D91919391E0E439F907D1F720
:10019000E7EBF8E83197F1F700C000008150FFEF7E
:1001A000AF1ABF0A8111EBCF739498CF28960FB680
:1001B000F894DEBF0FBECDBFDF91CF911F910F919D
:1001C000FF90EF90DF90CF90BF90AF909F908F9077
:1001D0007F906F9008950F931F93CF93DF93C0E9A3
:1001E000D1E004E610E06FD1B801FCD00F971CF409
:1001F00088818064888388818695899381E0C43969
:10020000D80789F787EC9FEA0197F1F700C0000053
:10021000DF91CF911F910F9108951F920F920FB60A
:100220000F9211242F933F934F935F936F937F937C
:100230008F939F93AF93BF93EF93FF93809194011C
:1002400060E971E065D0809194018F5F80939401A3
:1002500080919401843110F010929401B09B05C0FC
:10026000B19903C081E080936000B19B05C0B09953
:1002700003C082E080936000FF91EF91BF91AF9146
:100280009F918F917F916F915F914F913F912F91AE
:100290000F900FBE0F901F90189590E0843191053C
:1002A000B0F5FC01EF5EFF4F8AB30994836009C08B
:1002B00083600BC0856021C0896023C0816825C030
:1002C00085608ABBD89A089586608ABBD99A0895BA
:1002D000866013C08A6015C0826817C08960F1CF3C
:1002E0008A60F3CF8C6009C08C600BC084680DC03D
:1002F0008168E7CF8268E9CF84688ABBDA9A08957B
:1003000088688ABBDB9A089588688ABBDF9A08955B
:10031000482F9B011ABA1BBA65E058D0592FF90132
:10032000E80FF11D808190E002C0959587955A9560
:10033000E2F780FF02C0842FB0CF0895262F6330EC
:1003400090F490EE980F9F3570F4082E000C990BE6
:10035000809763E070E029D08B599F4FFC01E20F3A
:10036000F11D8081089580E00895CF93DF93CDB78C
:10037000DEB72E970FB6F894DEBF0FBECDBF8EE06E
:10038000E2E8F1E0DE01119601900D928A95E1F725
:1003900078DE80916000813021F08230D1F71BDF60
:1003A000F8CFCE01019682DEF4CF0024552704C099
:1003B000080E591F880F991F009729F076956795A9
:1003C000B8F37105B9F7802D952F0895991B79E041
:1003D00004C0991F961708F0961B881F7A95C9F7D5
:1003E0008095089597FB072E16F4009406D077FDAC
:1003F00008D00BD007FC05D03EF4909581959F4F17
:100400000895709561957F4F0895AA1BBB1B51E11C
:1004100007C0AA1FBB1FA617B70710F0A61BB70B74
:10042000881F991F5A95A9F780959095BC01CD0119
:1004300008958F929F92AF92BF92CF92DF92EF92E8
:10044000FF92CF93DF93EC01688179818A819B8150
:10045000611571058105910521F464E279ED8BE563
:1004600097E02DE133EF41E050E055D049015A01CA
:1004700027EA31E440E050E035D06B017C012CEEFE
:1004800034EF4FEF5FEFC501B4012CD0DC01CB019D
:100490008C0D9D1DAE1DBF1DB7FF03C00197A109A7
:1004A000B04888839983AA83BB839F77DF91CF91DC
:1004B000FF90EF90DF90CF90BF90AF909F908F9084
:1004C0000895B7DF089581E690E0B3DF0895A0E0D6
:1004D000B0E08093610090936200A0936300B093BA
:1004E00064000895EE27FF27AA27BB2708C0A20FA4
:1004F000B31FE41FF51F220F331F441F551F96958E
:1005000087957795679598F37040A9F7009799F7C5
:10051000BD01CF010895052E97FB16F400940FD06E
:1005200057FD05D014D007FC02D046F408C0509502
:100530004095309521953F4F4F4F5F4F08959095CF
:100540008095709561957F4F8F4F9F4F0895A1E2E1
:100550001A2EAA1BBB1BFD010DC0AA1FBB1FEE1F3D
:10056000FF1FA217B307E407F50720F0A21BB30B88
:10057000E40BF50B661F771F881F991F1A9469F704
:1005800060957095809590959B01AC01BD01CF0160
:060590000895F894FFCF6E
:100596000101000000000000001D001800181F0ADD
:1005A6001F091F121304190A150B001800000E115B
:1005B600110E00040A04040E0401020004040400DF
:1005C60001000304181F111F091F01131509111536
:1005D6000A1C041F1915120E15121314180A150AEF
:1005E60009150E000A00010A00040A110A0A0A1176
:1005F6000A041015080E151D0F140F1F150A0E11EB
:10060600111F110E1F15111F14100E11161F041F96
:10061600111F1102011E1F041B1F01011F081F1FAE
:10062600100F0E110E1F14080C120D1F140B0915B6
:1006360012101F101F011F1E011E1F021F1B041B6D
:10064600180718131519001F11180403111F0008A5
:1006560010080101011008000609071F090606090E
:100666000906091F060B0D041F14050B061F0807B4
:100676000017000116001F0205101F010F0C0F0FB7
:1006860008070609060F0A04040A0F0F0800050AE0
:1006960000081F080F010F0E010E0F030F090609B0
:1006A6000D030E0B0F0D041F11001F00111F040C6C
:1006B60008182048656C6C6F20576F726C642100B7
:00000001FF
