:1000000024C03EC03DC03CC03BC03AC04FC038C019
:1000100037C036C035C034C033C032C031C030C044
:100020002FC080C081C082C083C084C085C088C00A
:100030008BC08CC08DC08EC08FC090C091C092C04C
:1000400093C094C095C098C09BC011241FBECFE53B
:10005000D2E0DEBFCDBF11E0A0E6B0E0E0E5F3E026
:1000600002C005900D92AE3EB107D9F721E0AEEE89
:10007000B1E001C01D92A33FB207E1F7AFD066C166
:10008000BFCF1ABA87B38C7F87BBF8941FBC1EBC46
:100090008EB589608EBD8FEF93E09BBD8ABD619A5E
:1000A0007894379880B1836080B908951F920F9239
:1000B0000FB60F9211242F933F934F935F936F933B
:1000C0007F938F939F93AF93BF93EF93FF93809111
:1000D000F2016EEE71E090E057D08091F2018F5FF7
:1000E0008093F2018091F201843110F01092F201BC
:1000F000FF91EF91BF91AF919F918F917F916F9100
:100100005F914F913F912F910F900FBE0F901F90D5
:10011000189590E084319105B0F5FC01EF5EFF4F3A
:100120008AB30994836009C083600BC0856021C0D5
:10013000896023C0816825C085608ABBD89A0895EC
:1001400086608ABBD99A0895866013C08A6015C0FC
:10015000826817C08960F1CF8A60F3CF8C6009C0D4
:100160008C600BC084680DC08168E7CF8268E9CFDE
:1001700084688ABBDA9A089588688ABBDB9A0895F6
:1001800088688ABBDF9A0895482F9B011ABA1BBA68
:1001900065E070E0B4D0F901E60FF71F208130E090
:1001A000B90102C0759567958A95E2F760FF02C0B4
:1001B000842FAFCF08959B01633071056CF4082E36
:1001C000000C990B63E070E089D0805A9F4FFC01CE
:1001D000E20FF31F8081089580E00895CF93DF93AD
:1001E000CDB7DEB765970FB6F894DEBF0FBECDBFB3
:1001F0008DE0E0EEF1E08E010F5F1F4FD80101901E
:100200000D928A95E1F73DDFCE0142963C0128012F
:10021000A12CB12CF80101900020E9F73197E01BE7
:10022000F10BAE16BF0698F77E019EE0E90EF11CB9
:100230004701C12CD12CB601F2018081BCDFF40151
:1002400081934F01FFEFCF1ADF0A84E0C816D10473
:1002500091F79FEFA91AB90AF80101900020E9F778
:100260003197E01BF10B4301C12CD12CAE16BF0618
:1002700070F0B60189819FDFF40181934F01FFEF98
:10028000CF1ADF0A84E0C816D10499F70EC0B60170
:10029000F201818190DFF40181934F01FFEFCF1ACA
:1002A000DF0A84E0C816D10491F7EEEEF1E0D70141
:1002B0008D91819391E0E23FF907D1F7EFE3FCE9FB
:1002C0003197F1F700C00000FFEFEF1AFF0A6E143C
:1002D0007F0459F78FEF481A580A9CCF00245527FE
:1002E00004C0080E591F880F991F009729F07695B2
:1002F0006795B8F37105B9F7802D952F089597FB91
:10030000072E16F4009406D077FD08D00BD007FC1A
:1003100005D03EF4909581959F4F08957095619515
:100320007F4F0895AA1BBB1B51E107C0AA1FBB1F2B
:10033000A617B70710F0A61BB70B881F991F5A9571
:10034000A9F780959095BC01CD010895F894FFCF51
:10035000000000000000000000000000000000009D
:10036000000000000000000000000000000000008D
:10037000000000000000000000000000000000007D
:10038000000000000000000000000000000000006D
:10039000000000000000000000000000000000005D
:1003A000000000000000000000000000000000004D
:1003B000000000001D001800181F0A1F091F12135B
:1003C00004190A150B001800000E11110E00040A82
:1003D00004040E04010200040404000100030418D4
:1003E0001F111F091F0113150911150A1C041F19DC
:1003F00015120E15121314180A150A09150E000A03
:1004000000010A00040A110A0A0A110A0410150858
:100410000E151D0F140F1F150A0E11111F110E1F9F
:1004200015111F14100E11161F041F111F110201A8
:100430001E1F041B1F01011F081F1F100F0E110E8E
:100440001F14080C120D1F140B091512101F101F7A
:10045000011F1E011E1F021F1B041B180718131566
:1004600019001F11180403111F00081008010101D1
:100470001008000609071F090606090906091F06D4
:100480000B0D041F14050B061F08070017000116AB
:10049000001F0205001F000F0C0F0F0807060906BA
:1004A0000F0A04040A0F0F0800050A00081F080FAE
:1004B000010F0E010E0F030F0906090D030E0B0F9E
:1004C0000D041F11001F00111F040C08180000006C
:0E04D00048656C6C6F20576F726C64210000E1
:00000001FF
