:1000000024C03EC03DC03CC03BC03AC08CC038C0DC
:1000100037C036C035C034C033C032C031C030C044
:100020002FC04FC050C051C052C053C054C057C061
:100030005AC05BC05CC05DC05EC05FC060C061C0D4
:1000400062C063C064C067C06AC011241FBECFE530
:10005000D2E0DEBFCDBF12E0A0E6B0E0E4E1F2E026
:1000600002C005900D92A036B107D9F722E0A0E6B4
:10007000B2E001C01D92A536B207E1F799D0C8C021
:10008000BFCF1ABA87B38C7F87BBF8941FBC1EBC46
:100090008EB589608EBD8FEF93E09BBD8ABD619A5E
:1000A0007894379880B1836080B908951ABA1BBAE2
:1000B00090E084319105B0F5FC01EF5EFF4F8AB30B
:1000C0000994836009C083600BC0856021C089608A
:1000D00023C0816825C085608ABBD89A0895866050
:1000E0008ABBD99A0895866013C08A6015C0826859
:1000F00017C08960F1CF8A60F3CF8C6009C08C6033
:100100000BC084680DC08168E7CF8268E9CF84683E
:100110008ABBDA9A089588688ABBDB9A0895886852
:100120008ABBDF9A08951F920F920FB60F92112487
:100130002F933F934F935F936F937F938F939F93EF
:10014000AF93BF93EF93FF938091640245E0642FD8
:1001500053D0E82FF0E0E05AFD4F208180916402F7
:1001600030E04AD002C0359527959A95E2F720FFF6
:1001700003C0809164029ADF809164028F5F809354
:10018000640280916402843110F010926402FF9145
:10019000EF91BF91AF919F918F917F916F915F91FF
:1001A0004F913F912F910F900FBE0F901F90189578
:1001B00068DF80E090E0FC01EE0FFF1FEE0FFF1FF5
:1001C000E05AFF4F20812093600221812093610239
:1001D0002281209362022381209363022FEF30E774
:1001E00042E0215030404040E1F700C0000001965D
:1001F0008F37910504F3DDCF991B79E004C0991F77
:10020000961708F0961B881F7A95C9F78095089570
:04021000F894FFCF90
:1002140000000000000000000000000000000000DA
:1002240000000000000000000000000000000000CA
:1002340000000000000000000000000000000000BA
:1002440000000000000000000000000000000000AA
:10025400000000000000000000000000000000009A
:10026400000000000000000000000000000000008A
:10027400000000000000000000000000000000007A
:10028400000000000000000000000000000000006A
:1002940000000000001D000018001800000000000D
:1002A400091F1200130419000000000000180000C8
:1002B400000E1100110E0000040A0400040E0400D4
:1002C40001020000040404000001000003041800FB
:1002D4001F111F00091F01001315090011150A0041
:1002E4001C041F00191512000E1512001314180017
:1002F4000A150A0009150E00000A0000010A000090
:10030400040A11000A0A0A00110A04001015080060
:10031400000000000F140F001F150A000E11110039
:100324001F110E001F1511001F1410000E111600CE
:100334001F041F00111F110002011E001F041B00D7
:100344001F0101001F081F001F100F000E110E00D7
:100354001F1408000C120D001F140B0009151200C5
:10036400101F10001F011F001E011E001F021F008E
:100374001B041B00180718001315190000000000C7
:10038400180403000000000000000000000000004A
:100394000000000000000000000000000000000059
:1003A4000000000000000000000000000000000049
:1003B4000000000000000000000000000000000039
:1003C4000000000000000000000000000000000029
:1003D4000000000000000000000000000000000019
:1003E4000000000000000000000000000000000009
:1003F40000000000000000000000000000000000F9
:1004040000000000000000000000000000000000E8
:00000001FF
