:1000000024C03EC03DC03CC03BC03AC08AC038C0DE
:1000100037C036C035C034C033C032C031C030C044
:100020002FC04DC04EC04FC050C051C052C055C06F
:1000300058C059C05AC05BC05CC05DC05EC05FC0E4
:1000400060C061C062C065C068C011241FBECFE53A
:10005000D2E0DEBFCDBF12E0A0E6B0E0EEEBF2E012
:1000600002C005900D92AE37B107D9F722E0AEE796
:10007000B2E001C01D92A338B207E1F79AD01DC1CA
:10008000BFCF1ABA87B38C7F87BBF8941FBC1EBC46
:100090008EB589608EBD8FEF93E09BBD8ABD619A5E
:1000A0007894379880B1836080B9089590E0843166
:1000B0009105B0F5FC01EF5EFF4F8AB309948360B0
:1000C00009C083600BC0856021C0896023C081683E
:1000D00025C085608ABBD89A089586608ABBD99A64
:1000E0000895866013C08A6015C0826817C0896051
:1000F000F1CF8A60F3CF8C6009C08C600BC084683C
:100100000DC08168E7CF8268E9CF84688ABBDA9A3C
:10011000089588688ABBDB9A089588688ABBDF9A4D
:1001200008951F920F920FB60F9211242F933F93B1
:100130004F935F936F937F938F939F93AF93BF93EF
:10014000EF93FF931ABA1BBA8091820250918202F8
:1001500045E0642FA6D0E82FF0E0E258FD4F208163
:1001600030E0852F9ED002C0359527959A95E2F70D
:1001700020FF03C08091820299DF809182028F5F0D
:100180008093820280918202843110F01092820268
:10019000FF91EF91BF91AF919F918F917F916F915F
:1001A0005F914F913F912F910F900FBE0F901F9035
:1001B0001895CF93DF93CDB7DEB7A6970FB6F89417
:1001C000DEBF0FBECDBF8EE1E0E6F2E08E010F5F35
:1001D0001F4FD80101900D928A95E1F752DF9E01E1
:1001E0002D5D3F4FD80180E090E0F80101900020A4
:1001F000E9F73197E01BF10B8E179F0798F7ED9108
:100200000E2E000CFF0BEE0FFF1FEE0FFF1FE05A2C
:10021000FF4F40814F8F418148A3428149A34381D1
:100220004AA30196F80101900020E9F73197E01BFD
:10023000F10B8E179F07B0F0E9810E2E000CFF0B1B
:10024000EE0FFF1FEE0FFF1FE05AFF4F40814BA341
:1002500041814CA342814DA343814EA3AE01415E37
:100260005F4F19C0EC91E9CFFB01F190BF01F6019E
:10027000F1926F01F2E8CF16F2E0DF06A9F7EFE4A2
:10028000F3EC3197F1F700C000004F5F5F4F241788
:10029000350709F4AACF6EE7C62E62E0D62EBA0162
:1002A000E3CF991B79E004C0991F961708F0961BBD
:0E02B000881F7A95C9F780950895F894FFCFBE
:1002BE000000000000000000000000000000000030
:1002CE000000000000000000000000000000000020
:1002DE000000000000000000000000000000000010
:1002EE000000000000000000000000000000000000
:1002FE0000000000000000000000000000000000F0
:10030E0000000000000000000000000000000000DF
:10031E0000000000000000000000000000000000CF
:10032E0000000000000000000000000000000000BF
:10033E0000000000001D0000180018001F0A1F001A
:10034E00091F1200130419000A150B0000180000F3
:10035E00000E1100110E0000040A0400040E040029
:10036E000102000004040400000100000304180050
:10037E001F111F00091F01001315090011150A0096
:10038E001C041F00191512000E151200131418006C
:10039E000A150A0009150E00000A0000010A0000E5
:1003AE00040A11000A0A0A00110A040010150800B6
:1003BE000E151D000F140F001F150A000E1111004F
:1003CE001F110E001F1511001F1410000E11160024
:1003DE001F041F00111F110002011E001F041B002D
:1003EE001F0101001F081F001F100F000E110E002D
:1003FE001F1408000C120D001F140B00091512001B
:10040E00101F10001F011F001E011E001F021F00E3
:10041E001B041B001807180013151900001F1100EC
:10042E0018040300111F000008100800010101004C
:10043E0010080000060907001F090600060909003A
:10044E0006091F00060B0D00041F1400050B060005
:10045E001F08070000170000011600001F0205000C
:10046E00001F00000F0C0F000F0807000609060002
:10047E000F0A0400040A0F000F080000090A00000A
:10048E00080F08000F010F000E010E000F030F00E2
:10049E00090609000D030E000B0F0D00041F1100BD
:1004AE00001F0000111F04000C08180000000000BF
:1004BE007A797877767574737271706F6E6D6C6B06
:0E04CE006A6968676665646362617B7C7D00B5
:00000001FF
